:100000000C9434000C9451000C9451000C94510049
:100010000C9451000C9451000C9451000C9451001C
:100020000C9451000C9451000C9451000C9451000C
:100030000C9451000C9451000C9451000C945100FC
:100040000C9495000C9451000C9451000C945100A8
:100050000C9451000C9451000C9451000C945100DC
:100060000C9451000C94510011241FBECFEFD8E026
:10007000DEBFCDBF11E0A0E0B1E0E0EEF1E002C0F4
:1000800005900D92A233B107D9F721E0A2E3B1E0C8
:1000900001C01D92A134B207E1F70E94D3000C9475
:1000A000EE000C9400009091C00095FFFCCF80936F
:1000B000C60090E080E008958091C00087FFFCCFEB
:1000C0008091C60090E00895CF93DF93EC01899171
:1000D000811105C090E080E0DF91CF91089570E03C
:1000E00060E00E945300F3CF86E08093C20088E175
:1000F0008093C100E0ECF0E080818D7F80831092DE
:10010000C50087E68093C40008952FB780918400CE
:10011000909185002FBF0895189905C085B190E290
:10012000892785B908952D9808951F920F920FB6CB
:100130000F9211242F933F934F935F936F937F936D
:100140008F939F93AF93BF93EF93FF93A89A809160
:1001500034019091350101969093350180933401DB
:10016000CD9730F00E948C0010923501109234012E
:10017000FF91EF91BF91AF919F918F917F916F917F
:100180005F914F913F912F910F900FBE0F901F9055
:10019000189585B5856085BDEEE6F0E080818160CB
:1001A0008083789408950E9474000E94C9008EE0B4
:1001B00091E090933E0180933D0180E091E0909327
:1001C0003C0180933B01259A20982D9883B781604C
:1001D00083BF889583B78E7F83BFF8CFF894FFCF16
:1001E000000000010000000000005C0000000000B2
:1001F00000020000000053000000000041746D6523
:100200006761382055415254207265616479210A32
:020210000000EC
:00000001FF
