:100000000C94B5000C94D2000C94D2000C94D20045
:100010000C94D2000C94D2000C94D2000C94D20018
:100020000C94D2000C94D2000C94D2000C94D20008
:100030000C94D2000C94D2000C94D2000C94D200F8
:100040000C944E050C94D2000C94D2000C94D20067
:100050000C94D2000C94D2000C94D2000C94D200D8
:100060000C94D2000C94D2006E616E00696E660032
:1000700000407A10F35A00A0724E18090010A5D45F
:10008000E80000E87648170000E40B54020000CABC
:100090009A3B000000E1F505000080969800000002
:1000A00040420F000000A086010000001027000061
:1000B0000000E803000000006400000000000A00E7
:1000C000000000000100000000002C76D888DC67EA
:1000D0004F0823DFC1DFAE59E1B1B796E5E3E45342
:1000E000C63AE651997696E8E6C28426EB898C9B5F
:1000F00062ED407C6FFCEFBC9C9F40F2BAA56FA5FF
:10010000F490055A2AF75C936B6CF9676DC11BFC80
:10011000E0E40D47FEF520E6B500D0ED902E03009B
:10012000943577050080841E080000204E0A0000E8
:1001300000C80C333333330F986E12831141EF8DA7
:100140002114893BE65516CFFEE6DB18D1844B38E7
:100150001BF77C1D901DA4BBE424203284725E2218
:100160008100C9F124ECA1E53D2711241FBECFEF8A
:10017000D8E0DEBFCDBF11E0A0E0B1E0E8E5F2E1FC
:1001800002C005900D92AE3CB107D9F721E0AEEC6C
:10019000B1E001C01D92AE3DB207E1F70E948605B5
:1001A0000C942A090C940000AFE0B0E0EAEDF0E016
:1001B0000C9461076C011B014A01FC011782168235
:1001C000838181FF34C39E012F5F3F4F3901F601C8
:1001D0009381F10193FD859193FF81911F01882304
:1001E00009F4D6C2853239F493FD859193FF81914C
:1001F0001F01853239F4B60190E00E94860854014F
:100200004501E5CFF12C512C00E0003238F48B325F
:1002100009F190F48032F9F0833209F107FD34C01E
:1002200020ED280F2A3020F506FF1BC0FAE0FF9EC4
:10023000200D1124F22E05C08D3279F0803371F734
:100240000160F10193FD859193FF81911F0181115F
:10025000DCCF1AC002600460F4CF0860F2CF006106
:10026000F0CF3AE0539E200D1124522E0062E9CFC8
:100270008E3221F406FD8CC20064E3CF8C3611F47B
:100280000068DFCF8836E9F29BEB980F933008F0D7
:100290005CC00061805E06FD02C046E0F42E102FB7
:1002A0001F73853609F058C0106417FF5EC08F2D8C
:1002B0009BE39F1508F48BE344244394480E27E006
:1002C000F40161917191819191915F01042DA301DC
:1002D0000E9498074C01F981FC87F0FF03C00DE2F2
:1002E000F3FF07C00BE211FD04C0012F047012FDE3
:1002F00000E22C852C70E22E09F457C001119AC23D
:10030000F3E0E12CF515A0F483E0E52CE81A13FDE9
:1003100008C0B60180E290E00E948608EA94E110ED
:10032000F8CF002329F0B601802F90E00E948608C4
:100330003C8528E6822E20E0922E33FD04C09CE608
:10034000892E90E0992E107122C09BE9980F93306E
:1003500008F034C10F7E9FCF863611F41068A5CF08
:10036000FF2009F4A2CFFA94A0CFE7E02F2DEF15DC
:1003700018F427E037E0F32E412CA2CF1111805260
:10038000B60190E00E9486088FEF881A980AF4015F
:1003900084918111F3CFEE2009F432CFB60180E2CF
:1003A00090E00E948608EA94F6CF17FF70C0480CD0
:1003B000FC85F4FF04C08A81813309F44A94141443
:1003C0000CF087C028E0241510F488E0482E85E062
:1003D00090E017FF06C0C40197FE02C090E080E0E5
:1003E000019601110196FF2031F02F2D30E02F5F93
:1003F0003F4F820F931F5816190619F014F0E52C81
:10040000E81A812F897011F4E11068C0002329F0E7
:10041000B601802F90E00E94860813FD02C0E11013
:1004200064C017FF7DC0840197FE02C010E000E0A9
:10043000C401841991092C016F2D70E0EE27FF276C
:10044000E61BF70BFF87EE87801691060CF454C06D
:10045000401651060CF050C0F401E01BF10BE60D04
:10046000F71D8181015011092E853F850217130761
:100470000CF444C0B60190E00E9486080F3F1007BC
:1004800019F7B6018EE290E00E948608DDCF16FDD6
:100490009ECFEF2DF0E0E815F90534F03CEF831620
:1004A0003FEF93060CF010683296E60DF71D01C081
:1004B000FA94FF2019F082918033D1F317FF87CF90
:1004C000442443944F0CF814190431F02CF0F8181C
:1004D0007ECF442443947BCFF12C79CFB60180E2C8
:1004E00090E00E948608EA948FCFB60180E390E006
:1004F0000E948608EA9493CF80E3B4CF80169106D9
:1005000041F49A81963350F4953319F49C8594FF05
:1005100005C0B60190E00E9486083DCF81E3F9CF87
:100520008A81813319F0EC85EF7EEC87B60190E08B
:100530000E948608FF20A9F0B6018EE290E00E949A
:100540008608F394F394E2E001E00E0FE60DF72D38
:10055000F11D8081B60190E00E948608E02F0F1106
:10056000F3CF85E690E014FF02C085E490E0B60189
:100570000E94860897FC06C081149104C1F4FC8592
:10058000F4FF15C09194819491088DE2B60190E03A
:100590000E94860880E33AE08316910454F4B60181
:1005A00090E00E948608B601C401C096B4CF8BE2E9
:1005B000EDCF8F5F2AE0821A9108EDCF8336B1F03C
:1005C000833759F1833509F055C0F401819091903A
:1005D0005F016F2D70E006FD02C06FEF7FEFC40179
:1005E0000E9470089D878C8700680DC0540182E0CE
:1005F000A80EB11CF4018081898321E030E03D87A1
:100600002C8743010F7703FD06C02C853D855216CC
:10061000130609F090F4E52C28C0F4018190919024
:100620005F016F2D70E006FD02C06FEF7FEFC40128
:100630000E947B089D878C87E5CFB60180E290E021
:100640000E9486085A94E1CFF40107FD859107FFC7
:1006500081914F01B60190E00E948608E110EA9472
:100660008C859D8501979D878C87EC85FD85EF2B7B
:1006700059F791CE843619F0893609F06EC0F4012D
:1006800007FF63C061917191819191915F01102F7A
:100690001F7697FF08C090958095709561957F4F64
:1006A0008F4F9F4F10682AE030E0A3010E94CC08D2
:1006B000882E8618982C012F16FF0AC00E7F8F14E3
:1006C00038F414FF04C012FD02C0012F0E7E9F2CCF
:1006D00004FF85C0FE01E80DF11D8081803309F023
:1006E00077C0097EF02FF870EF2E03FD87C000FF62
:1006F00081C0F82C951410F4F50CF91804FF84C08F
:10070000B60180E390E00E94860802FF09C088E7F6
:1007100090E001FF02C088E590E0B6010E948608E3
:100720008F1408F47DC08A94082D10E00F5F1F4FCE
:10073000060D171DF80182918F01B60190E00E940D
:10074000860806151705B1F726CE619171915F01F4
:10075000072E000C880B990B9ACF102F853791F438
:100760001F7E2AE030E0F40117FF2CC061917191E7
:10077000819191915F01A3010E94CC08882E861877
:100780001F7798CF197F8F36D1F048F4883591F0D4
:10079000F601868197812F96E2E10C947D078037E0
:1007A00039F08837A9F714FD146020E130E0DBCF81
:1007B0001061F9CF04FD166020E132E0D4CF28E0CB
:1007C00030E0D1CF619171915F0190E080E0D3CFB3
:1007D00002FD02C0939486CF9394939483CF802F8D
:1007E000867809F47FCFF6CFB60180E290E00E94D0
:1007F000860893949514C0F3E12C80CFE52CE9187A
:10080000951408F47BCFF8CF802F867809F488CF31
:100810008BE201FF80E207FD8DE2B60190E07ECF22
:10082000B60180E390E00E948608FA9479CF8FEFBA
:100830009FEFB1CF24E0E12C251508F074CD84E0C2
:1008400064CD80E593EC20E931E0F9013197F1F7CF
:100850000197D9F7089586E08093C20088E18093DC
:10086000C100E0ECF0E080818D7F80831092C500B4
:1008700087E68093C40008958EBD0DB407FEFDCFBA
:100880000895CF93C62F2A980E943C048C2F0E9473
:100890003C042A9ACF9108950F931F93CF93DF932F
:1008A000D82F0EE011E0C0E0CD1305C0DF91CF914D
:1008B0001F910F910895F80160810E5F1F4FCF5F68
:1008C0008C2F0E944104F0CFCF93C82F8091D1018B
:1008D00081111BC084B18C6284B98CB581658CBDDB
:1008E00060E08FE00E94410461E08CE00E944104DE
:1008F00081E08093D10160E089E00E944104609131
:100900001E0161508BE00E944104C11102C0C091E0
:10091000D4016C2F8AE00E9441041092D001CF9143
:100920000895E62FF0E0EE0FFF1FE25FFE4FA82FC5
:10093000880FBB0BA359BE4F8C9190E091838083AD
:1009400080911E01082E000C990B0E944C0490E02F
:1009500080E0089580529091D00120911E01022ED6
:10096000000C330B9217130614F01092D001609113
:10097000D00191E0960F9093D0010E94910490E0F5
:1009800080E0089540E063E883E10C94C0061F9383
:10099000CF93DF938FE191E00E94FA06182F109217
:1009A000D001813049F5809121011F928F93C3E3DB
:1009B000D1E0DF93CF930E94B608809120011F926F
:1009C0008F93DF93CF930E94B60880911F011F92EF
:1009D0008F9386E291E09F938F930E94B6088DB724
:1009E0009EB70C960FB6F8949EBF0FBE8DBF812F99
:1009F000DF91CF911F91089580911F011F928F93D6
:100A00001F921F938CE291E09F938F930E94B608F0
:100A10000E9421040F900F900F900F900F900F9055
:100A2000E6CF189931C08091D6019091D701892BDA
:100A300031F18091CE019091CF0101969093CF0139
:100A40008093CE0181E090E09093D7018093D6010E
:100A500082E090E00E9464041092D0018091CF0166
:100A60008F938091CE018F9387E391E09F938F9333
:100A70000E94B6080F900F900F900F90089510925B
:100A8000CF011092CE01DECF1092D7011092D60185
:100A90001092CF011092CE010C94C7041F920F92B6
:100AA0000FB60F9211242F933F934F935F936F9341
:100AB0007F938F939F93AF93BF93EF93FF93A89AE6
:100AC0008091D2019091D30101969093D3018093AC
:100AD000D201CD9730F00E9411051092D3011092EF
:100AE000D201FF91EF91BF91AF919F918F917F9133
:100AF0006F915F914F913F912F910F900FBE0F908B
:100B00001F9018958FE191E00C9437070E942B04F9
:100B100088E00E94640480E091E09093DB01809380
:100B2000DA010E94C204882351F01092D00180E4BF
:100B300091E09F938F930E94B6080F900F900E94B0
:100B40008205882361F01092D00189E491E09F939F
:100B50008F930E94B6080E9421040F900F900E946C
:100B6000BC06892B61F01092D00182E591E09F9341
:100B70008F930E94B6080E9421040F900F900E944C
:100B8000C704813061F41092D0018BE591E09F930E
:100B90008F930E94B6080E9421040F900F90C4E624
:100BA000D1E000E911E01092D0010E94C70488232F
:100BB00041F088E893E1F8013197F1F70197D9F70F
:100BC000F2CFDF93CF930E94B6080F900F90EBCF38
:100BD00088B1807188B988B1807288B93C983D9895
:100BE00008953D9885E090E0FC013197F1F73C9A3B
:100BF0000197F1F708953D9883E090E00197F1F7B0
:100C00003C9A85E090E0FC013197F1F73C98019720
:100C1000F1F7089598E043E050E025E030E03D9A98
:100C2000FA013197F1F787FF25C03C98F901319718
:100C3000F1F73D98F9013197F1F7359BFECF880F19
:100C4000915069F73D9A83E090E00197F1F73C9865
:100C5000E5E0F0E0CF010197F1F73D98CF01019772
:100C6000F1F786B13D9A3197F1F78295817091E065
:100C7000892708953C9ADACF982F30E020E080E071
:100C800045E050E060E870E03D9AFA013197F1F7F5
:100C90003D98FA013197F1F7359BFECF349B08C0A0
:100CA000FB01022E02C0F595E7950A94E2F78E2B20
:100CB0002F5F3F4F2830310539F73D9AE3E0F0E0F0
:100CC0003197F1F7992381F03C9A25E030E0F90162
:100CD0003197F1F73D98F9013197F1F73D9AF90114
:100CE0003197F1F73C9808953C98EFCF1F93CF933D
:100CF000DF93182FEB010E94F10582EA0E940A0699
:100D0000811105C080E0DF91CF911F910895812F5F
:100D10000E940A068823B1F30E94F10583EA0E942B
:100D20000A06882379F380E00E943C0688830E94AB
:100D3000FB0581E0E8CFCF93DF93D82FC62F0E9429
:100D4000F10582EA0E940A06811104C080E0DF9169
:100D5000CF9108958D2F0E940A068823B9F38C2F16
:100D60000E940A06882391F30E94FB0581E0EFCFE1
:100D700060E280E00C949B0660E080E00C949B06AF
:100D8000FF920F931F93CF93DF930F92CDB7DEB7F0
:100D9000F82E062F142F0E94E8056F2D81E00E9487
:100DA0009B06811108C080E00F90DF91CF911F91C9
:100DB0000F91FF900895602F8DE00E949B0688237D
:100DC00091F3612F8EE00E949B06882361F3BE01A0
:100DD0006F5F7F4F87E00E947606882321F3698149
:100DE0006F7787E00E949B068823E9F20E94BC0689
:100DF00081E0DACFEF92FF920F931F93CF93DF93AF
:100E0000EC010E94F10582EA0E940A06882339F16A
:100E100082E00E940A06882321F10E94F10583EAFC
:100E20000E940A068823F9F08E017E0187E0E80E11
:100E3000F11C81E00E943C06F80181938F01EE15C0
:100E4000FF05B9F70E94FB05888187FD0EC081E090
:100E5000DF91CF911F910F91FF90EF9008958AE05D
:100E6000F7CF8BE0F5CF8CE0F3CF8DE0F1CF0F9390
:100E70001F93CF93DF93182F092F0E94B8060E946B
:100E8000F10582EA0E940A06811106C080E0DF9126
:100E9000CF911F910F91089582E00E940A06882346
:100EA000A9F3C12FD02F195F89910E940A068823C8
:100EB00069F31C13F9CF0E94FB050E94BC0681E078
:100EC000E6CF2F923F924F925F926F927F928F92D6
:100ED0009F92AF92BF92CF92DF92EF92FF920F93C9
:100EE0001F93CF93DF93CDB7DEB7CA1BDB0B0FB6D3
:100EF000F894DEBF0FBECDBF09942A883988488890
:100F00005F846E847D848C849B84AA84B984C88425
:100F1000DF80EE80FD800C811B81AA81B981CE0F1C
:100F2000D11D0FB6F894DEBF0FBECDBFED01089501
:100F3000283008F027E03327DA01990F311D87FDAB
:100F4000916000966105710539F432602E5F3D9322
:100F500030E32A95E1F708959F3F30F0803871051E
:100F6000610509F03C5F3C5F3D93913008F080687B
:100F7000911DDF93CF931F930F93FF92EF92192F41
:100F8000987F9695E92F96959695E90FFF27E6535A
:100F9000FF4F99273327EE24FF24A701E70105908F
:100FA0000894079428F4360FE71EF81E491F511DB8
:100FB000660F771F881F991F0694A1F70590079465
:100FC00028F4E70EF81E491F561FC11D770F881F12
:100FD000991F661F0694A1F70590079428F4F80E50
:100FE000491F561FC71FD11D880F991F661F771FE6
:100FF0000694A1F70590079420F4490F561FC71FC8
:10100000D81F990F661F771F881F0694A9F7849130
:101010001095177041F0D695C79557954795F79459
:10102000E7941A95C1F7E0E7F0E068941590159100
:1010300035916591959105907FE27395E118F10ADC
:10104000430B560BC90BD009C0F7E10CF11E431F2F
:10105000561FC91FD01D7EF4703311F48A95E6CF58
:10106000E894015030F0080F0AF40027021708F442
:10107000202F2395022F7A3328F079E37D932A9548
:10108000E9F710C07D932A9589F6069497956795A0
:10109000379517951794E118F10A430B560BC90BB6
:1010A000D00998F023957E9173957A3308F070E318
:1010B0007C932013B8F77E9170617D9330F0839517
:1010C00071E37D9370E32A95E1F71124EF90FF908F
:1010D0000F911F91CF91DF91992787FD90950895EA
:1010E000FC010590615070400110D8F780959095F3
:1010F0008E0F9F1F0895FC016150704001900110F8
:10110000D8F7809590958E0F9F1F08950F931F938A
:10111000CF93DF93182F092FEB018B8181FD09C03D
:101120001FEF0FEF812F902FDF91CF911F910F9124
:10113000089582FF14C02E813F818C819D812817E4
:1011400039073CF4E881F981CF01019699838883BE
:1011500010838E819F8101969F838E83E3CFE885E4
:10116000F985812F0995892BA1F3DACFB0E0A0E0B2
:10117000ECEBF8E00C947107AE014B5F5F4FFA01A6
:1011800061917191AF018091DA019091DB010E9430
:10119000D400E2E00C948D07FA01AA27283051F11F
:1011A000203181F1E8946F936E7F6E5F7F4F8F4F98
:1011B0009F4FAF4FB1E03ED0B4E03CD0670F781FF7
:1011C000891F9A1FA11D680F791F8A1F911DA11DDC
:1011D0006A0F711D811D911DA11D20D009F4689415
:1011E0003F912AE0269F11243019305D3193DEF6BD
:1011F000CF010895462F4770405D4193B3E00FD073
:10120000C9F7F6CF462F4F70405D4A3318F0495D5D
:1012100031FD4052419302D0A9F7EACFB4E0A69540
:101220009795879577956795BA95C9F70097610562
:10123000710508959B01AC010A2E069457954795B8
:1012400037952795BA95C9F7620F731F841F951FAD
:08125000A01D0895F894FFCFE2
:101258000000000200000000AA04000000000000D6
:101268000100020003000400050006000700080052
:101278002210010001132532582020004641494C14
:1012880025325825325800504C41592520346400E5
:1012980054494E494F4B212100534554204F4B216F
:1012A8002100535452544F4B21210053484F574F5C
:1012B8004B2121004641494C202020200000B0222B
:1012C8003F5BA531024A684263040180257E306D88
:1012D80079335B5F707F7B4858430961E57D771FF1
:1012E8004E3D4F475E37063C570E54767E676B6619
:1012F8005B0F3E3E2A373B6D4E13786208207D1FF8
:101308000D3D6F477B170418570614151D677305A5
:0E1318005B0F1C1C14373B6D310607400000B4
:00000001FF
